:100000000EC01DC022C3E4C21AC019C018C017C058
:1000100016C015C014C013C012C011C010C01124E6
:100020001FBECFE5D2E0DEBFCDBF21E0A0E6B0E04D
:1000300001C01D92AF30B207E1F740D38BC3E0CFD0
:100040006817790718F4861B970B08959B01281BE6
:10005000390BC9010895EFE3FCE93197F1F700C0CE
:1000600000008B30910510F00A97F5CF089525E335
:100070002A95F1F700008B30910510F00A97F7CF21
:100080000895EF92FF920F931F93CF93DF931FB7C3
:10009000111F1127111F19F02FB72F772FBFEC0158
:1000A000D695C795062F000F0150C09AF12CEE246B
:1000B000E394F01638F4CE01CEDF88B38E2588BBEA
:1000C000F394F7CF112319F08FB780688FBFDF91BA
:1000D000CF911F910F91FF90EF90089568177907C6
:1000E00028F49C01261B370BB90102C0681B790B51
:1000F00081E06536710508F080E00895EF92FF9287
:100100000F931F93621773078407950728F0621BEC
:10011000730B840B950B0CC079018A01E61AF70A60
:10012000080B190BC801B7016095709580959095E3
:100130001F910F91FF90EF9008951092640010921C
:100140006500109266001092670089B7806489BFCD
:1001500080B7806880BF80B7846080BF83E18DBD39
:10016000089580B7807F80BF0895CF93DF9300D03C
:1001700000D000D0CDB7DEB746E050E060E070E0E0
:10018000CE010196B6D289819A81AB81BC81893634
:100190009446AE46B14641F48D81813029F48E817A
:1001A00080930E0181E001C080E026960FB6F8949E
:1001B000DEBF0FBECDBFDF91CF91089580910E01BC
:1001C000882349F043EA50E066E070E08BE690E077
:1001D00090D281E0089580E00895CF93DF9300D01E
:1001E00000D000D0CDB7DEB789E694E6AEE6B1E642
:1001F00089839A83AB83BC8381E08D8380910E01D8
:100200008E8346E050E060E070E0CE01019681D23E
:1002100026960FB6F894DEBF0FBECDBFDF91CF910B
:1002200008958FB78F778FBF10920B0110920D0139
:1002300010920C018BB780628BBFAB9AAC9A8FEF98
:1002400087BBBA98BB98BC98C39A8FDF882311F0FC
:10025000B5DF0AC062E08CE291E013DF80910E010D
:100260008E7F80930E01B9DF68DF8FB780688FBF04
:10027000089543EA50E066E070E08BE690E049C202
:10028000FC01E056FF4F10823196118210820895D2
:10029000AF92BF92CF92DF92EF92FF920F931F9394
:1002A000CF93DF93EC016B018C0100561F4FF801D7
:1002B000B0807C01A12CAB1459F0B601F7018191FB
:1002C00091917F010BDF882339F03A2D3F3F99F45C
:1002D000FFE0FB1518F419C0A394EDCFEB2DF0E06F
:1002E000EE0FFF1FEC0FFD1FD182C0823B2D81E07E
:1002F0008B0DF8018083DE01AF55BF4F8D919C912E
:1003000011978F3F910519F010F080E016C0FC01A5
:10031000F695E795EC0FFD1F80FF07C03295307F03
:1003200020A12F70322B30A304C020A1207F232BCB
:1003300020A301968D939C9381E0DF91CF911F9133
:100340000F91FF90EF90DF90CF90BF90AF90089506
:1003500060FF02C024E001C020E0FB01F695E795B4
:10036000E80FF91FE0A1F0E002C0F595E7952A95A6
:10037000E2F7EF70F0E0EE0FFF1FE80FF91F80814A
:10038000918108952091680030916900232B21F418
:1003900090936900809368000895AF92BF92CF92C6
:1003A000DF92EF92FF920F931F93CF93DF938C0115
:1003B000C62E80910E0181110EC063E08CE291E0A7
:1003C000DF91CF911F910F91FF90EF90DF90CF9031
:1003D000BF90AF9056CEC098C198D12C780181EAD9
:1003E000E80EF11CBB24B39462E0A62EDC14C1F02D
:1003F000C0E0D0E0F70180819181C817D90760F48F
:1004000088B38B2588BB88B38A2588BBBE01C80109
:100410009FDF2DDE2196EECFC098C198D394E6CF12
:10042000DF91CF911F910F91FF90EF90DF90CF90D0
:10043000BF90AF90089564E08CE291E022DE80915D
:100440000E01816080930E01C8DE13CF65E08CE25F
:1004500091E017DEB3CE2F923F924F925F926F9250
:100460007F928F929F92AF92BF92CF92DF92EF9244
:10047000FF920F931F93CF93DF938090640090902F
:100480006500A0906600B0906700C6B3C47010927B
:100490000B0110920D0110920C011092630010924A
:1004A0006200782C092D1A2DDB2D22242394C09074
:1004B0006400D0906500E0906600F0906700A501B0
:1004C0009401C701B6011ADE36B2232D2470322EF4
:1004D0006138764988499105A0F0C098DF91CF91A5
:1004E0001F910F91FF90EF90DF90CF90BF90AF9052
:1004F0009F908F907F906F905F904F903F902F9044
:10050000A5CFC315A1F288B3822588BB272D302F34
:10051000412F5D2FC701B601F1DD2B013C01EB013D
:100520006634710578F08BE690E0B2DE81110AC086
:1005300010920B0110920D0110920C01B2018BE68A
:1005400090E0A6DE00910C0110910D01C93BDB404B
:1005500030F47C2C0D2D1E2DDF2DC32DA8CF0431A2
:100560001105B8F3C1E0809162009091630080179B
:10057000910709F0C0E0B2018091600090916100A4
:10058000ADDD8823B1F0CC23A1F0C098DF91CF91ED
:100590001F910F91FF90EF90DF90CF90BF90AF90A1
:1005A0009F908F907F906F905F904F903F902F9093
:1005B00042CF10936300009362005092610040921A
:1005C000600010920B0110920D0110920C01C1CF2E
:1005D0001F920F920FB60F9211242F938F939F9318
:1005E000AF93BF938091640090916500A0916600E5
:1005F000B0916700863F9F4FAF4FBF4F48F01092BA
:10060000640010926500109266001092670013C09B
:100610008091640090916500A0916600B0916700A0
:100620000A96A11DB11D8093640090936500A0936C
:100630006600B0936700BF91AF919F918F912F910A
:100640000F900FBE0F901F9018951F920F920FB62C
:100650000F9211242F933F934F935F936F937F9348
:100660008F939F93AF93BF93CF93EF93FF93C6B3B3
:1006700080916A00C827C4FF05C0B49B03C081E015
:1006800090E080DEC3FF05C0B39903C082E090E034
:1006900079DE86B380936A00FF91EF91CF91BF918D
:1006A000AF919F918F917F916F915F914F913F910A
:1006B0002F910F900FBE0F901F901895B2DD809173
:1006C0006800909169008130910521F00297B9F797
:1006D000C2DE0AC08FB78F778FBF6AE08BE690E0EB
:1006E0005CDE8FB780688FBF10926900109268003F
:1006F000E6CFDC01CB01FC01E199FECF06C0FFBBD8
:10070000EEBBE09A31960DB20D9241505040B8F7D1
:100710000895DC01A40FB51F4150504040F0CB01BB
:10072000840F951F2E9105D041505040D8F7089561
:10073000262FE199FECF9FBB8EBBE09A01970DB2A9
:10074000021639F01CBA2DBB0FB6F894E29AE19A62
:080750000FBE0895F894FFCFDD
:00000001FF
